{
  "contractName": "CallMe",
  "abi": [
    {
      "inputs": [],
      "name": "a",
      "outputs": [
        {
          "internalType": "uint256",
          "name": "",
          "type": "uint256"
        }
      ],
      "stateMutability": "view",
      "type": "function",
      "constant": true
    },
    {
      "inputs": [],
      "name": "b",
      "outputs": [
        {
          "internalType": "uint256",
          "name": "",
          "type": "uint256"
        }
      ],
      "stateMutability": "view",
      "type": "function",
      "constant": true
    },
    {
      "inputs": [
        {
          "internalType": "uint256",
          "name": "_b",
          "type": "uint256"
        }
      ],
      "name": "setB",
      "outputs": [
        {
          "internalType": "uint256",
          "name": "",
          "type": "uint256"
        }
      ],
      "stateMutability": "nonpayable",
      "type": "function"
    },
    {
      "inputs": [
        {
          "internalType": "uint256",
          "name": "_a",
          "type": "uint256"
        }
      ],
      "name": "setA",
      "outputs": [
        {
          "internalType": "uint256",
          "name": "",
          "type": "uint256"
        }
      ],
      "stateMutability": "nonpayable",
      "type": "function"
    }
  ],
  "bytecode": "0x60806040526001600055600260015534801561001a57600080fd5b506102aa8061002a6000396000f3fe608060405234801561001057600080fd5b506004361061004c5760003560e01c806309cdcf9b146100515780630dbe671f146100815780634df7e3d01461009f578063ee919d50146100bd575b600080fd5b61006b600480360381019061006691906101a0565b6100ed565b60405161007891906101dc565b60405180910390f35b610089610146565b60405161009691906101dc565b60405180910390f35b6100a761014c565b6040516100b491906101dc565b60405180910390f35b6100d760048036038101906100d291906101a0565b610152565b6040516100e491906101dc565b60405180910390f35b6000816001819055506064600154101561013c576040517f08c379a000000000000000000000000000000000000000000000000000000000815260040161013390610254565b60405180910390fd5b6001549050919050565b60005481565b60015481565b6000816000819055506000549050919050565b600080fd5b6000819050919050565b61017d8161016a565b811461018857600080fd5b50565b60008135905061019a81610174565b92915050565b6000602082840312156101b6576101b5610165565b5b60006101c48482850161018b565b91505092915050565b6101d68161016a565b82525050565b60006020820190506101f160008301846101cd565b92915050565b600082825260208201905092915050565b7f4e6f7420656e6f7567682c20492077616e74206d6f7265000000000000000000600082015250565b600061023e6017836101f7565b915061024982610208565b602082019050919050565b6000602082019050818103600083015261026d81610231565b905091905056fea2646970667358221220c5ca7e4424a02be32854a51cd56939be451ed0463b285004f2fd4a099d31e4c664736f6c63430008110033",
  "immutableReferences": {},
  "source": "pragma solidity >= 0.8.17.0;\n\n// SPDX-License-Identifier: GPL-3.0-only\n\n// This is a contract with a public function called setA.\n// As the property 'a' is public there is a the equivalent\n// of a function called a() to retrieve it.\n\ncontract CallMe {\n    uint public a = 1;\n    uint public b = 2;\n\n    function setB(uint _b) public returns (uint) {\n        b = _b;\n        if (b < 100) {\n            revert(\"Not enough, I want more\");\n        }\n        return b;\n    }\n\n    function setA(uint _a) public returns (uint) {\n        a = _a;\n        return a;\n    }\n    \n}",
  "sourcePath": "/home/robin/src/DumbContracts/calling/contracts/calling.sol",
  "compiler": {
    "name": "solc",
    "version": "0.8.17+commit.8df45f5f.Emscripten.clang"
  },
  "schemaVersion": "3.4.11",
  "updatedAt": "2023-01-07T15:54:12.935Z",
  "networkType": "ethereum",
  "devdoc": {
    "kind": "dev",
    "methods": {},
    "version": 1
  },
  "userdoc": {
    "kind": "user",
    "methods": {},
    "version": 1
  }
}