{
  "contractName": "MakeCall",
  "abi": [
    {
      "inputs": [
        {
          "internalType": "address",
          "name": "_t",
          "type": "address"
        }
      ],
      "name": "Existing",
      "outputs": [],
      "stateMutability": "nonpayable",
      "type": "function"
    },
    {
      "inputs": [],
      "name": "getA",
      "outputs": [
        {
          "internalType": "uint256",
          "name": "result",
          "type": "uint256"
        }
      ],
      "stateMutability": "view",
      "type": "function",
      "constant": true
    },
    {
      "inputs": [
        {
          "internalType": "uint256",
          "name": "_val",
          "type": "uint256"
        }
      ],
      "name": "setA",
      "outputs": [
        {
          "internalType": "uint256",
          "name": "result",
          "type": "uint256"
        }
      ],
      "stateMutability": "nonpayable",
      "type": "function"
    },
    {
      "inputs": [
        {
          "internalType": "uint256",
          "name": "_val",
          "type": "uint256"
        }
      ],
      "name": "setA_Signature",
      "outputs": [
        {
          "internalType": "bool",
          "name": "success",
          "type": "bool"
        }
      ],
      "stateMutability": "nonpayable",
      "type": "function"
    },
    {
      "inputs": [
        {
          "internalType": "uint256",
          "name": "_val",
          "type": "uint256"
        }
      ],
      "name": "setB_Signature",
      "outputs": [
        {
          "internalType": "bool",
          "name": "success",
          "type": "bool"
        }
      ],
      "stateMutability": "nonpayable",
      "type": "function"
    }
  ],
  "bytecode": "0x608060405234801561001057600080fd5b5061084d806100206000396000f3fe608060405234801561001057600080fd5b50600436106100575760003560e01c806344187af11461005c5780638976762d1461008c5780638e0273bb146100bc578063d46300fd146100d8578063ee919d50146100f6575b600080fd5b610076600480360381019061007191906105b8565b610126565b6040516100839190610600565b60405180910390f35b6100a660048036038101906100a191906105b8565b61024c565b6040516100b39190610600565b60405180910390f35b6100d660048036038101906100d19190610679565b6103ba565b005b6100e061043e565b6040516100ed91906106b5565b60405180910390f35b610110600480360381019061010b91906105b8565b6104d5565b60405161011d91906106b5565b60405180910390f35b600080600160009054906101000a900473ffffffffffffffffffffffffffffffffffffffff1673ffffffffffffffffffffffffffffffffffffffff168360405160240161017391906106b5565b6040516020818303038152906040527f09cdcf9b000000000000000000000000000000000000000000000000000000007bffffffffffffffffffffffffffffffffffffffffffffffffffffffff19166020820180517bffffffffffffffffffffffffffffffffffffffffffffffffffffffff83818316178352505050506040516101fd9190610741565b6000604051808303816000865af19150503d806000811461023a576040519150601f19603f3d011682016040523d82523d6000602084013e61023f565b606091505b5050905080915050919050565b600060608260405160240161026191906106b5565b6040516020818303038152906040527fee919d50000000000000000000000000000000000000000000000000000000007bffffffffffffffffffffffffffffffffffffffffffffffffffffffff19166020820180517bffffffffffffffffffffffffffffffffffffffffffffffffffffffff838183161783525050505090506000600160009054906101000a900473ffffffffffffffffffffffffffffffffffffffff1673ffffffffffffffffffffffffffffffffffffffff16826040516103299190610741565b6000604051808303816000865af19150503d8060008114610366576040519150601f19603f3d011682016040523d82523d6000602084013e61036b565b606091505b50509050806103af576040517f08c379a00000000000000000000000000000000000000000000000000000000081526004016103a6906107b5565b60405180910390fd5b600192505050919050565b806000806101000a81548173ffffffffffffffffffffffffffffffffffffffff021916908373ffffffffffffffffffffffffffffffffffffffff16021790555080600160006101000a81548173ffffffffffffffffffffffffffffffffffffffff021916908373ffffffffffffffffffffffffffffffffffffffff16021790555050565b60008060009054906101000a900473ffffffffffffffffffffffffffffffffffffffff1673ffffffffffffffffffffffffffffffffffffffff16630dbe671f6040518163ffffffff1660e01b8152600401602060405180830381865afa1580156104ac573d6000803e3d6000fd5b505050506040513d601f19601f820116820180604052508101906104d091906107ea565b905090565b60008060009054906101000a900473ffffffffffffffffffffffffffffffffffffffff1673ffffffffffffffffffffffffffffffffffffffff1663ee919d50836040518263ffffffff1660e01b815260040161053191906106b5565b6020604051808303816000875af1158015610550573d6000803e3d6000fd5b505050506040513d601f19601f8201168201806040525081019061057491906107ea565b50819050919050565b600080fd5b6000819050919050565b61059581610582565b81146105a057600080fd5b50565b6000813590506105b28161058c565b92915050565b6000602082840312156105ce576105cd61057d565b5b60006105dc848285016105a3565b91505092915050565b60008115159050919050565b6105fa816105e5565b82525050565b600060208201905061061560008301846105f1565b92915050565b600073ffffffffffffffffffffffffffffffffffffffff82169050919050565b60006106468261061b565b9050919050565b6106568161063b565b811461066157600080fd5b50565b6000813590506106738161064d565b92915050565b60006020828403121561068f5761068e61057d565b5b600061069d84828501610664565b91505092915050565b6106af81610582565b82525050565b60006020820190506106ca60008301846106a6565b92915050565b600081519050919050565b600081905092915050565b60005b838110156107045780820151818401526020810190506106e9565b60008484015250505050565b600061071b826106d0565b61072581856106db565b93506107358185602086016106e6565b80840191505092915050565b600061074d8284610710565b915081905092915050565b600082825260208201905092915050565b7f43616c6c206661696c6564000000000000000000000000000000000000000000600082015250565b600061079f600b83610758565b91506107aa82610769565b602082019050919050565b600060208201905081810360008301526107ce81610792565b9050919050565b6000815190506107e48161058c565b92915050565b600060208284031215610800576107ff61057d565b5b600061080e848285016107d5565b9150509291505056fea26469706673582212203bcfd5e908548ffa6b72b6cc3fec07e8c84ca42e22ce89cb2b30b3a799ef120d64736f6c63430008110033",
  "immutableReferences": {},
  "source": "pragma solidity >= 0.8.17.0;\n\n// SPDX-License-Identifier: GPL-3.0-only\n\n// The definition of the CallMe contract. We can set\n// this up here as we know it in this instance.\n\nimport \"./calling.sol\";\n\n/*\ncontract CallMe {\n    function a() public pure returns (uint) {}\n    function setA(uint _a) public returns (uint) {}\n\n    // c doesn't exist, I want to see what happens if I try to call it\n    function c() public pure returns (uint) {}\n    function setC(uint _c) public returns (uint) {}\n\n    // There is also a pair of functions about 'b' but they don't\n    // have to be defined here.\n}\n*/\n\n// This contract uses the above as a structure to use with the \n// address passed in.\n\ncontract MakeCall {\n    CallMe dc;\n    address dcNoABI;\n\n    // We pass the address of the contract in here.\n    function Existing(address _t) public {\n        dc = CallMe(_t);\n        dcNoABI = _t; \n    }\n \n    // Call a() on the dc contract.\n    function getA() public view returns (uint result) {\n        return dc.a();\n    }\n    \n    function setA(uint _val) public returns (uint result) {\n        dc.setA(_val);\n        return _val;\n    }\n\n    // Trying to work out how to make a call without the definition.\n    function setA_Signature(uint _val) public returns(bool success){\n        // This is the shorter way to do this\n        // (bool sent, bytes memory data) = dcNoABI.call(abi.encodeWithSignature(\"setB(uint256)\", _val));\n\n        // The longer way, generate and store the payload\n        bytes memory payload;\n        // The parameter is uint256, not just uint, that is very important.\n        payload = abi.encodeWithSignature(\"setA(uint256)\", _val);\n        // Then pass it.\n        (bool sent,) =  dcNoABI.call(payload);\n        require(sent, \"Call failed\");\n        return true;\n    }\n    // Trying to work out how to make a call without the definition.\n    function setB_Signature(uint _val) public returns(bool success){\n//        (bool sent, bytes memory data) = dcNoABI.call(abi.encodeWithSignature(\"setB(uint)\", _val));\n        (bool sent,) =  dcNoABI.call(abi.encodeWithSignature(\"setB(uint256)\", _val));\n        return sent;\n    }\n}\n",
  "sourcePath": "/home/robin/src/DumbContracts/calling/contracts/makecall.sol",
  "compiler": {
    "name": "solc",
    "version": "0.8.17+commit.8df45f5f.Emscripten.clang"
  },
  "schemaVersion": "3.4.11",
  "updatedAt": "2023-01-08T22:21:27.236Z",
  "networkType": "ethereum",
  "devdoc": {
    "kind": "dev",
    "methods": {},
    "version": 1
  },
  "userdoc": {
    "kind": "user",
    "methods": {},
    "version": 1
  }
}