{
  "contractName": "Inbox",
  "abi": [
    {
      "inputs": [
        {
          "internalType": "string",
          "name": "_initialMessage",
          "type": "string"
        }
      ],
      "stateMutability": "nonpayable",
      "type": "constructor"
    },
    {
      "inputs": [],
      "name": "message",
      "outputs": [
        {
          "internalType": "string",
          "name": "",
          "type": "string"
        }
      ],
      "stateMutability": "view",
      "type": "function",
      "constant": true
    },
    {
      "inputs": [],
      "name": "pageSize",
      "outputs": [
        {
          "internalType": "uint256",
          "name": "",
          "type": "uint256"
        }
      ],
      "stateMutability": "view",
      "type": "function",
      "constant": true
    },
    {
      "inputs": [
        {
          "internalType": "string",
          "name": "_newMessage",
          "type": "string"
        }
      ],
      "name": "setMessage",
      "outputs": [],
      "stateMutability": "nonpayable",
      "type": "function"
    },
    {
      "inputs": [],
      "name": "getMessage",
      "outputs": [
        {
          "internalType": "string",
          "name": "",
          "type": "string"
        }
      ],
      "stateMutability": "view",
      "type": "function",
      "constant": true
    },
    {
      "inputs": [
        {
          "internalType": "uint256",
          "name": "_size",
          "type": "uint256"
        }
      ],
      "name": "setPageSize",
      "outputs": [
        {
          "internalType": "uint256",
          "name": "",
          "type": "uint256"
        }
      ],
      "stateMutability": "nonpayable",
      "type": "function"
    }
  ],
  "bytecode": "0x60806040523480156200001157600080fd5b5060405162000da938038062000da98339818101604052810190620000379190620001e3565b80600090816200004891906200047f565b505062000566565b6000604051905090565b600080fd5b600080fd5b600080fd5b600080fd5b6000601f19601f8301169050919050565b7f4e487b7100000000000000000000000000000000000000000000000000000000600052604160045260246000fd5b620000b9826200006e565b810181811067ffffffffffffffff82111715620000db57620000da6200007f565b5b80604052505050565b6000620000f062000050565b9050620000fe8282620000ae565b919050565b600067ffffffffffffffff8211156200012157620001206200007f565b5b6200012c826200006e565b9050602081019050919050565b60005b83811015620001595780820151818401526020810190506200013c565b60008484015250505050565b60006200017c620001768462000103565b620000e4565b9050828152602081018484840111156200019b576200019a62000069565b5b620001a884828562000139565b509392505050565b600082601f830112620001c857620001c762000064565b5b8151620001da84826020860162000165565b91505092915050565b600060208284031215620001fc57620001fb6200005a565b5b600082015167ffffffffffffffff8111156200021d576200021c6200005f565b5b6200022b84828501620001b0565b91505092915050565b600081519050919050565b7f4e487b7100000000000000000000000000000000000000000000000000000000600052602260045260246000fd5b600060028204905060018216806200028757607f821691505b6020821081036200029d576200029c6200023f565b5b50919050565b60008190508160005260206000209050919050565b60006020601f8301049050919050565b600082821b905092915050565b600060088302620003077fffffffffffffffffffffffffffffffffffffffffffffffffffffffffffffffff82620002c8565b620003138683620002c8565b95508019841693508086168417925050509392505050565b6000819050919050565b6000819050919050565b6000620003606200035a62000354846200032b565b62000335565b6200032b565b9050919050565b6000819050919050565b6200037c836200033f565b620003946200038b8262000367565b848454620002d5565b825550505050565b600090565b620003ab6200039c565b620003b881848462000371565b505050565b5b81811015620003e057620003d4600082620003a1565b600181019050620003be565b5050565b601f8211156200042f57620003f981620002a3565b6200040484620002b8565b8101602085101562000414578190505b6200042c6200042385620002b8565b830182620003bd565b50505b505050565b600082821c905092915050565b6000620004546000198460080262000434565b1980831691505092915050565b60006200046f838362000441565b9150826002028217905092915050565b6200048a8262000234565b67ffffffffffffffff811115620004a657620004a56200007f565b5b620004b282546200026e565b620004bf828285620003e4565b600060209050601f831160018114620004f75760008415620004e2578287015190505b620004ee858262000461565b8655506200055e565b601f1984166200050786620002a3565b60005b8281101562000531578489015182556001820191506020850194506020810190506200050a565b868310156200055157848901516200054d601f89168262000441565b8355505b6001600288020188555050505b505050505050565b61083380620005766000396000f3fe608060405234801561001057600080fd5b50600436106100575760003560e01c806327d00fd01461005c578063368b87721461008c57806394490e9a146100a8578063ce6d41de146100c6578063e21f37ce146100e4575b600080fd5b61007660048036038101906100719190610298565b610102565b60405161008391906102d4565b60405180910390f35b6100a660048036038101906100a19190610435565b610115565b005b6100b0610128565b6040516100bd91906102d4565b60405180910390f35b6100ce61012e565b6040516100db91906104fd565b60405180910390f35b6100ec6101c0565b6040516100f991906104fd565b60405180910390f35b6000816001819055506001549050919050565b8060009081610124919061072b565b5050565b60015481565b60606000805461013d9061054e565b80601f01602080910402602001604051908101604052809291908181526020018280546101699061054e565b80156101b65780601f1061018b576101008083540402835291602001916101b6565b820191906000526020600020905b81548152906001019060200180831161019957829003601f168201915b5050505050905090565b600080546101cd9061054e565b80601f01602080910402602001604051908101604052809291908181526020018280546101f99061054e565b80156102465780601f1061021b57610100808354040283529160200191610246565b820191906000526020600020905b81548152906001019060200180831161022957829003601f168201915b505050505081565b6000604051905090565b600080fd5b600080fd5b6000819050919050565b61027581610262565b811461028057600080fd5b50565b6000813590506102928161026c565b92915050565b6000602082840312156102ae576102ad610258565b5b60006102bc84828501610283565b91505092915050565b6102ce81610262565b82525050565b60006020820190506102e960008301846102c5565b92915050565b600080fd5b600080fd5b6000601f19601f8301169050919050565b7f4e487b7100000000000000000000000000000000000000000000000000000000600052604160045260246000fd5b610342826102f9565b810181811067ffffffffffffffff821117156103615761036061030a565b5b80604052505050565b600061037461024e565b90506103808282610339565b919050565b600067ffffffffffffffff8211156103a05761039f61030a565b5b6103a9826102f9565b9050602081019050919050565b82818337600083830152505050565b60006103d86103d384610385565b61036a565b9050828152602081018484840111156103f4576103f36102f4565b5b6103ff8482856103b6565b509392505050565b600082601f83011261041c5761041b6102ef565b5b813561042c8482602086016103c5565b91505092915050565b60006020828403121561044b5761044a610258565b5b600082013567ffffffffffffffff8111156104695761046861025d565b5b61047584828501610407565b91505092915050565b600081519050919050565b600082825260208201905092915050565b60005b838110156104b857808201518184015260208101905061049d565b60008484015250505050565b60006104cf8261047e565b6104d98185610489565b93506104e981856020860161049a565b6104f2816102f9565b840191505092915050565b6000602082019050818103600083015261051781846104c4565b905092915050565b7f4e487b7100000000000000000000000000000000000000000000000000000000600052602260045260246000fd5b6000600282049050600182168061056657607f821691505b6020821081036105795761057861051f565b5b50919050565b60008190508160005260206000209050919050565b60006020601f8301049050919050565b600082821b905092915050565b6000600883026105e17fffffffffffffffffffffffffffffffffffffffffffffffffffffffffffffffff826105a4565b6105eb86836105a4565b95508019841693508086168417925050509392505050565b6000819050919050565b600061062861062361061e84610262565b610603565b610262565b9050919050565b6000819050919050565b6106428361060d565b61065661064e8261062f565b8484546105b1565b825550505050565b600090565b61066b61065e565b610676818484610639565b505050565b5b8181101561069a5761068f600082610663565b60018101905061067c565b5050565b601f8211156106df576106b08161057f565b6106b984610594565b810160208510156106c8578190505b6106dc6106d485610594565b83018261067b565b50505b505050565b600082821c905092915050565b6000610702600019846008026106e4565b1980831691505092915050565b600061071b83836106f1565b9150826002028217905092915050565b6107348261047e565b67ffffffffffffffff81111561074d5761074c61030a565b5b610757825461054e565b61076282828561069e565b600060209050601f8311600181146107955760008415610783578287015190505b61078d858261070f565b8655506107f5565b601f1984166107a38661057f565b60005b828110156107cb578489015182556001820191506020850194506020810190506107a6565b868310156107e857848901516107e4601f8916826106f1565b8355505b6001600288020188555050505b50505050505056fea2646970667358221220cece9e3ca8a95e5b4726ed3235c7a471561a2ea8ff86d1abe5136ac4a4966f0864736f6c63430008110033",
  "immutableReferences": {},
  "source": "// SPDX-License-Identifier: MIT\npragma solidity >=0.4.22 <0.9.0;\n\ncontract Inbox {\n    string public message;\n \tuint public pageSize;\n\n    constructor(string memory _initialMessage) {\n        message = _initialMessage;\n    }\n \n    function setMessage(string memory _newMessage) public {\n        message = _newMessage;\n    }\n \n    function getMessage() public view returns (string memory) {\n        return message;\n    }\n\n\tfunction setPageSize(uint _size) public returns (uint) {\n\t\tpageSize = _size;\n\t\treturn pageSize;\n\t}\n}\n",
  "sourcePath": "/home/robin/src/DumbContracts/inbox/contracts/Inbox.sol",
  "compiler": {
    "name": "solc",
    "version": "0.8.17+commit.8df45f5f.Emscripten.clang"
  },
  "schemaVersion": "3.4.11",
  "updatedAt": "2023-01-08T22:21:00.809Z",
  "networkType": "ethereum",
  "devdoc": {
    "kind": "dev",
    "methods": {},
    "version": 1
  },
  "userdoc": {
    "kind": "user",
    "methods": {},
    "version": 1
  }
}