{
  "contractName": "CallMe",
  "abi": [
    {
      "inputs": [],
      "name": "a",
      "outputs": [
        {
          "internalType": "uint256",
          "name": "",
          "type": "uint256"
        }
      ],
      "stateMutability": "view",
      "type": "function"
    },
    {
      "inputs": [
        {
          "internalType": "uint256",
          "name": "_b",
          "type": "uint256"
        }
      ],
      "name": "setB",
      "outputs": [
        {
          "internalType": "uint256",
          "name": "",
          "type": "uint256"
        }
      ],
      "stateMutability": "nonpayable",
      "type": "function"
    },
    {
      "inputs": [
        {
          "internalType": "uint256",
          "name": "_a",
          "type": "uint256"
        }
      ],
      "name": "setA",
      "outputs": [
        {
          "internalType": "uint256",
          "name": "",
          "type": "uint256"
        }
      ],
      "stateMutability": "nonpayable",
      "type": "function"
    }
  ],
  "bytecode": "0x608060405234801561001057600080fd5b506101a0806100206000396000f3fe608060405234801561001057600080fd5b50600436106100415760003560e01c806309cdcf9b146100465780630dbe671f14610076578063ee919d5014610094575b600080fd5b610060600480360381019061005b9190610113565b6100c4565b60405161006d919061014f565b60405180910390f35b61007e6100cb565b60405161008b919061014f565b60405180910390f35b6100ae60048036038101906100a99190610113565b6100d1565b6040516100bb919061014f565b60405180910390f35b6000919050565b60005481565b6000919050565b600080fd5b6000819050919050565b6100f0816100dd565b81146100fb57600080fd5b50565b60008135905061010d816100e7565b92915050565b600060208284031215610129576101286100d8565b5b6000610137848285016100fe565b91505092915050565b610149816100dd565b82525050565b60006020820190506101646000830184610140565b9291505056fea2646970667358221220ec5535bf531918cb804012ef70392325672936efb7379203cf609b7e9568e8ab64736f6c634300080d0033",
  "immutableReferences": {},
  "source": "// SPDX-License-Identifier: GPL-3.0-only\npragma solidity ^0.8.13;\n\ncontract CallMe {\n\tuint public a;\n    function setB(uint _b) public returns (uint) {}\n    function setA(uint _a) public returns (uint) {}\n}\n",
  "sourcePath": "/home/robin/src/DumbContracts/metacoin/contracts/Calling.sol",
  "compiler": {
    "name": "solc",
    "version": "0.8.13+commit.abaa5c0e.Emscripten.clang"
  },
  "schemaVersion": "3.4.11",
  "updatedAt": "2023-01-08T21:29:26.904Z",
  "devdoc": {
    "kind": "dev",
    "methods": {},
    "version": 1
  },
  "userdoc": {
    "kind": "user",
    "methods": {},
    "version": 1
  }
}