{
  "contractName": "Inbox",
  "abi": [
    {
      "inputs": [
        {
          "internalType": "string",
          "name": "_newMessage",
          "type": "string"
        }
      ],
      "name": "setMessage",
      "outputs": [],
      "stateMutability": "nonpayable",
      "type": "function"
    },
    {
      "inputs": [],
      "name": "getMessage",
      "outputs": [
        {
          "internalType": "string",
          "name": "",
          "type": "string"
        }
      ],
      "stateMutability": "view",
      "type": "function"
    },
    {
      "inputs": [
        {
          "internalType": "uint256",
          "name": "_size",
          "type": "uint256"
        }
      ],
      "name": "setPageSize",
      "outputs": [
        {
          "internalType": "uint256",
          "name": "",
          "type": "uint256"
        }
      ],
      "stateMutability": "nonpayable",
      "type": "function"
    }
  ],
  "bytecode": "0x608060405234801561001057600080fd5b506103cf806100206000396000f3fe608060405234801561001057600080fd5b50600436106100415760003560e01c806327d00fd014610046578063368b877214610076578063ce6d41de14610092575b600080fd5b610060600480360381019061005b9190610109565b6100b0565b60405161006d9190610145565b60405180910390f35b610090600480360381019061008b91906102a6565b6100b7565b005b61009a6100ba565b6040516100a79190610377565b60405180910390f35b6000919050565b50565b606090565b6000604051905090565b600080fd5b600080fd5b6000819050919050565b6100e6816100d3565b81146100f157600080fd5b50565b600081359050610103816100dd565b92915050565b60006020828403121561011f5761011e6100c9565b5b600061012d848285016100f4565b91505092915050565b61013f816100d3565b82525050565b600060208201905061015a6000830184610136565b92915050565b600080fd5b600080fd5b6000601f19601f8301169050919050565b7f4e487b7100000000000000000000000000000000000000000000000000000000600052604160045260246000fd5b6101b38261016a565b810181811067ffffffffffffffff821117156101d2576101d161017b565b5b80604052505050565b60006101e56100bf565b90506101f182826101aa565b919050565b600067ffffffffffffffff8211156102115761021061017b565b5b61021a8261016a565b9050602081019050919050565b82818337600083830152505050565b6000610249610244846101f6565b6101db565b90508281526020810184848401111561026557610264610165565b5b610270848285610227565b509392505050565b600082601f83011261028d5761028c610160565b5b813561029d848260208601610236565b91505092915050565b6000602082840312156102bc576102bb6100c9565b5b600082013567ffffffffffffffff8111156102da576102d96100ce565b5b6102e684828501610278565b91505092915050565b600081519050919050565b600082825260208201905092915050565b60005b8381101561032957808201518184015260208101905061030e565b83811115610338576000848401525b50505050565b6000610349826102ef565b61035381856102fa565b935061036381856020860161030b565b61036c8161016a565b840191505092915050565b60006020820190508181036000830152610391818461033e565b90509291505056fea2646970667358221220dbefe30fe0005c98b552a8ed58cf544abe2f79307de5be69fc8fd21bbaea6ef164736f6c634300080d0033",
  "immutableReferences": {},
  "source": "// SPDX-License-Identifier: MIT\npragma solidity >=0.4.22 <0.9.0;\n\ncontract Inbox {\n    function setMessage(string memory _newMessage) public {}\n    function getMessage() public view returns (string memory) {}\n\tfunction setPageSize(uint _size) public returns (uint) {}\n}\n",
  "sourcePath": "/home/robin/src/DumbContracts/metacoin/contracts/Inbox.sol",
  "compiler": {
    "name": "solc",
    "version": "0.8.13+commit.abaa5c0e.Emscripten.clang"
  },
  "schemaVersion": "3.4.11",
  "updatedAt": "2023-01-07T18:16:19.631Z",
  "devdoc": {
    "kind": "dev",
    "methods": {},
    "version": 1
  },
  "userdoc": {
    "kind": "user",
    "methods": {},
    "version": 1
  }
}