{
  "contractName": "MetaCoin",
  "abi": [
    {
      "inputs": [],
      "stateMutability": "nonpayable",
      "type": "constructor"
    },
    {
      "anonymous": false,
      "inputs": [
        {
          "indexed": true,
          "internalType": "address",
          "name": "_from",
          "type": "address"
        },
        {
          "indexed": true,
          "internalType": "address",
          "name": "_to",
          "type": "address"
        },
        {
          "indexed": false,
          "internalType": "uint256",
          "name": "_value",
          "type": "uint256"
        }
      ],
      "name": "Transfer",
      "type": "event"
    },
    {
      "stateMutability": "nonpayable",
      "type": "fallback"
    },
    {
      "inputs": [],
      "name": "contractOwner",
      "outputs": [
        {
          "internalType": "address",
          "name": "",
          "type": "address"
        }
      ],
      "stateMutability": "view",
      "type": "function",
      "constant": true
    },
    {
      "inputs": [
        {
          "internalType": "address",
          "name": "_t",
          "type": "address"
        }
      ],
      "name": "ExistingCall",
      "outputs": [],
      "stateMutability": "nonpayable",
      "type": "function"
    },
    {
      "inputs": [
        {
          "internalType": "address",
          "name": "_t",
          "type": "address"
        }
      ],
      "name": "Existing",
      "outputs": [],
      "stateMutability": "nonpayable",
      "type": "function"
    },
    {
      "inputs": [
        {
          "internalType": "address",
          "name": "receiver",
          "type": "address"
        },
        {
          "internalType": "uint256",
          "name": "amount",
          "type": "uint256"
        }
      ],
      "name": "sendCoin",
      "outputs": [
        {
          "internalType": "bool",
          "name": "sufficient",
          "type": "bool"
        }
      ],
      "stateMutability": "nonpayable",
      "type": "function"
    },
    {
      "inputs": [
        {
          "internalType": "address",
          "name": "addr",
          "type": "address"
        }
      ],
      "name": "getBalanceInEth",
      "outputs": [
        {
          "internalType": "uint256",
          "name": "",
          "type": "uint256"
        }
      ],
      "stateMutability": "view",
      "type": "function",
      "constant": true
    },
    {
      "inputs": [
        {
          "internalType": "address",
          "name": "addr",
          "type": "address"
        }
      ],
      "name": "getBalance",
      "outputs": [
        {
          "internalType": "uint256",
          "name": "",
          "type": "uint256"
        }
      ],
      "stateMutability": "view",
      "type": "function",
      "constant": true
    },
    {
      "inputs": [
        {
          "internalType": "uint256",
          "name": "key",
          "type": "uint256"
        }
      ],
      "name": "getArbMapping",
      "outputs": [
        {
          "internalType": "uint256",
          "name": "",
          "type": "uint256"
        }
      ],
      "stateMutability": "view",
      "type": "function",
      "constant": true
    },
    {
      "inputs": [],
      "name": "getMessage",
      "outputs": [
        {
          "internalType": "string",
          "name": "",
          "type": "string"
        }
      ],
      "stateMutability": "view",
      "type": "function",
      "constant": true
    },
    {
      "inputs": [
        {
          "internalType": "string",
          "name": "_message",
          "type": "string"
        }
      ],
      "name": "setMessage",
      "outputs": [],
      "stateMutability": "nonpayable",
      "type": "function"
    },
    {
      "inputs": [],
      "name": "setPageSize",
      "outputs": [
        {
          "internalType": "uint256",
          "name": "result",
          "type": "uint256"
        }
      ],
      "stateMutability": "nonpayable",
      "type": "function"
    },
    {
      "inputs": [],
      "name": "getA",
      "outputs": [
        {
          "internalType": "uint256",
          "name": "result",
          "type": "uint256"
        }
      ],
      "stateMutability": "view",
      "type": "function",
      "constant": true
    },
    {
      "inputs": [
        {
          "internalType": "uint256",
          "name": "_val",
          "type": "uint256"
        }
      ],
      "name": "setA",
      "outputs": [
        {
          "internalType": "uint256",
          "name": "result",
          "type": "uint256"
        }
      ],
      "stateMutability": "nonpayable",
      "type": "function"
    },
    {
      "inputs": [],
      "name": "sendCashToThisContract",
      "outputs": [],
      "stateMutability": "payable",
      "type": "function",
      "payable": true
    },
    {
      "inputs": [],
      "name": "getThisContractBalance",
      "outputs": [
        {
          "internalType": "uint256",
          "name": "",
          "type": "uint256"
        }
      ],
      "stateMutability": "view",
      "type": "function",
      "constant": true
    },
    {
      "inputs": [
        {
          "internalType": "address payable",
          "name": "_to",
          "type": "address"
        }
      ],
      "name": "withdrawAllInsecure",
      "outputs": [],
      "stateMutability": "nonpayable",
      "type": "function"
    },
    {
      "inputs": [
        {
          "internalType": "address payable",
          "name": "_to",
          "type": "address"
        }
      ],
      "name": "withdrawAll",
      "outputs": [],
      "stateMutability": "nonpayable",
      "type": "function"
    }
  ],
  "bytecode": "0x608060405234801561001057600080fd5b50336000806101000a81548173ffffffffffffffffffffffffffffffffffffffff021916908373ffffffffffffffffffffffffffffffffffffffff160217905550612710600360003273ffffffffffffffffffffffffffffffffffffffff1673ffffffffffffffffffffffffffffffffffffffff168152602001908152602001600020819055506006600460006017815260200190815260200160002081905550600360046000601a815260200190815260200160002081905550611228806100da6000396000f3fe6080604052600436106100f75760003560e01c806390b98a111161008a578063d46300fd11610059578063d46300fd14610317578063ee919d5014610342578063f8b2cb4f1461037f578063fa09e630146103bc576100f8565b806390b98a111461025b578063c2db412614610298578063ce606ee0146102c1578063ce6d41de146102ec576100f8565b8063368b8772116100c6578063368b87721461018f5780636b2d9c6d146101b85780637bd703e8146101f55780638e0273bb14610232576100f8565b80630b46f954146101065780632376fcd214610110578063300efa651461013b5780633293827714610166576100f8565b5b34801561010457600080fd5b005b61010e6103e5565b005b34801561011c57600080fd5b506101256103e7565b6040516101329190610b14565b60405180910390f35b34801561014757600080fd5b5061015061048d565b60405161015d9190610b14565b60405180910390f35b34801561017257600080fd5b5061018d60048036038101906101889190610ba1565b610495565b005b34801561019b57600080fd5b506101b660048036038101906101b19190610d14565b6104d9565b005b3480156101c457600080fd5b506101df60048036038101906101da9190610d89565b610569565b6040516101ec9190610b14565b60405180910390f35b34801561020157600080fd5b5061021c60048036038101906102179190610ba1565b610586565b6040516102299190610b14565b60405180910390f35b34801561023e57600080fd5b5061025960048036038101906102549190610ba1565b610612565b005b34801561026757600080fd5b50610282600480360381019061027d9190610db6565b610656565b60405161028f9190610e11565b60405180910390f35b3480156102a457600080fd5b506102bf60048036038101906102ba9190610e6a565b6107c4565b005b3480156102cd57600080fd5b506102d661080e565b6040516102e39190610ea6565b60405180910390f35b3480156102f857600080fd5b50610301610832565b60405161030e9190610f49565b60405180910390f35b34801561032357600080fd5b5061032c6108cf565b6040516103399190610b14565b60405180910390f35b34801561034e57600080fd5b5061036960048036038101906103649190610d89565b610967565b6040516103769190610b14565b60405180910390f35b34801561038b57600080fd5b506103a660048036038101906103a19190610ba1565b610a10565b6040516103b39190610b14565b60405180910390f35b3480156103c857600080fd5b506103e360048036038101906103de9190610e6a565b610a59565b005b565b6000600160009054906101000a900473ffffffffffffffffffffffffffffffffffffffff1673ffffffffffffffffffffffffffffffffffffffff166327d00fd060166040518263ffffffff1660e01b81526004016104459190610fb0565b6020604051808303816000875af1158015610464573d6000803e3d6000fd5b505050506040513d601f19601f820116820180604052508101906104889190610fe0565b905090565b600047905090565b80600260006101000a81548173ffffffffffffffffffffffffffffffffffffffff021916908373ffffffffffffffffffffffffffffffffffffffff16021790555050565b600160009054906101000a900473ffffffffffffffffffffffffffffffffffffffff1673ffffffffffffffffffffffffffffffffffffffff1663368b8772826040518263ffffffff1660e01b81526004016105349190610f49565b600060405180830381600087803b15801561054e57600080fd5b505af1158015610562573d6000803e3d6000fd5b5050505050565b600060046000838152602001908152602001600020549050919050565b600073__ConvertLib____________________________6396e4ee3d6105ab84610a10565b60026040518363ffffffff1660e01b81526004016105ca929190611057565b602060405180830381865af41580156105e7573d6000803e3d6000fd5b505050506040513d601f19601f8201168201806040525081019061060b9190610fe0565b9050919050565b80600160006101000a81548173ffffffffffffffffffffffffffffffffffffffff021916908373ffffffffffffffffffffffffffffffffffffffff16021790555050565b600081600360003373ffffffffffffffffffffffffffffffffffffffff1673ffffffffffffffffffffffffffffffffffffffff1681526020019081526020016000205410156106a857600090506107be565b81600360003373ffffffffffffffffffffffffffffffffffffffff1673ffffffffffffffffffffffffffffffffffffffff16815260200190815260200160002060008282546106f791906110af565b9250508190555081600360008573ffffffffffffffffffffffffffffffffffffffff1673ffffffffffffffffffffffffffffffffffffffff168152602001908152602001600020600082825461074d91906110e3565b925050819055508273ffffffffffffffffffffffffffffffffffffffff163373ffffffffffffffffffffffffffffffffffffffff167fddf252ad1be2c89b69c2b068fc378daa952ba7f163c4a11628f55a4df523b3ef846040516107b19190610b14565b60405180910390a3600190505b92915050565b8073ffffffffffffffffffffffffffffffffffffffff166108fc479081150290604051600060405180830381858888f1935050505015801561080a573d6000803e3d6000fd5b5050565b60008054906101000a900473ffffffffffffffffffffffffffffffffffffffff1681565b6060600160009054906101000a900473ffffffffffffffffffffffffffffffffffffffff1673ffffffffffffffffffffffffffffffffffffffff1663ce6d41de6040518163ffffffff1660e01b8152600401600060405180830381865afa1580156108a1573d6000803e3d6000fd5b505050506040513d6000823e3d601f19601f820116820180604052508101906108ca91906111a9565b905090565b6000600260009054906101000a900473ffffffffffffffffffffffffffffffffffffffff1673ffffffffffffffffffffffffffffffffffffffff16630dbe671f6040518163ffffffff1660e01b8152600401602060405180830381865afa15801561093e573d6000803e3d6000fd5b505050506040513d601f19601f820116820180604052508101906109629190610fe0565b905090565b6000600260009054906101000a900473ffffffffffffffffffffffffffffffffffffffff1673ffffffffffffffffffffffffffffffffffffffff1663ee919d50836040518263ffffffff1660e01b81526004016109c49190610b14565b6020604051808303816000875af11580156109e3573d6000803e3d6000fd5b505050506040513d601f19601f82011682018060405250810190610a079190610fe0565b50819050919050565b6000600360008373ffffffffffffffffffffffffffffffffffffffff1673ffffffffffffffffffffffffffffffffffffffff168152602001908152602001600020549050919050565b8073ffffffffffffffffffffffffffffffffffffffff1660008054906101000a900473ffffffffffffffffffffffffffffffffffffffff1673ffffffffffffffffffffffffffffffffffffffff1614610ab157600080fd5b8073ffffffffffffffffffffffffffffffffffffffff166108fc479081150290604051600060405180830381858888f19350505050158015610af7573d6000803e3d6000fd5b5050565b6000819050919050565b610b0e81610afb565b82525050565b6000602082019050610b296000830184610b05565b92915050565b6000604051905090565b600080fd5b600080fd5b600073ffffffffffffffffffffffffffffffffffffffff82169050919050565b6000610b6e82610b43565b9050919050565b610b7e81610b63565b8114610b8957600080fd5b50565b600081359050610b9b81610b75565b92915050565b600060208284031215610bb757610bb6610b39565b5b6000610bc584828501610b8c565b91505092915050565b600080fd5b600080fd5b6000601f19601f8301169050919050565b7f4e487b7100000000000000000000000000000000000000000000000000000000600052604160045260246000fd5b610c2182610bd8565b810181811067ffffffffffffffff82111715610c4057610c3f610be9565b5b80604052505050565b6000610c53610b2f565b9050610c5f8282610c18565b919050565b600067ffffffffffffffff821115610c7f57610c7e610be9565b5b610c8882610bd8565b9050602081019050919050565b82818337600083830152505050565b6000610cb7610cb284610c64565b610c49565b905082815260208101848484011115610cd357610cd2610bd3565b5b610cde848285610c95565b509392505050565b600082601f830112610cfb57610cfa610bce565b5b8135610d0b848260208601610ca4565b91505092915050565b600060208284031215610d2a57610d29610b39565b5b600082013567ffffffffffffffff811115610d4857610d47610b3e565b5b610d5484828501610ce6565b91505092915050565b610d6681610afb565b8114610d7157600080fd5b50565b600081359050610d8381610d5d565b92915050565b600060208284031215610d9f57610d9e610b39565b5b6000610dad84828501610d74565b91505092915050565b60008060408385031215610dcd57610dcc610b39565b5b6000610ddb85828601610b8c565b9250506020610dec85828601610d74565b9150509250929050565b60008115159050919050565b610e0b81610df6565b82525050565b6000602082019050610e266000830184610e02565b92915050565b6000610e3782610b43565b9050919050565b610e4781610e2c565b8114610e5257600080fd5b50565b600081359050610e6481610e3e565b92915050565b600060208284031215610e8057610e7f610b39565b5b6000610e8e84828501610e55565b91505092915050565b610ea081610b63565b82525050565b6000602082019050610ebb6000830184610e97565b92915050565b600081519050919050565b600082825260208201905092915050565b60005b83811015610efb578082015181840152602081019050610ee0565b83811115610f0a576000848401525b50505050565b6000610f1b82610ec1565b610f258185610ecc565b9350610f35818560208601610edd565b610f3e81610bd8565b840191505092915050565b60006020820190508181036000830152610f638184610f10565b905092915050565b6000819050919050565b6000819050919050565b6000610f9a610f95610f9084610f6b565b610f75565b610afb565b9050919050565b610faa81610f7f565b82525050565b6000602082019050610fc56000830184610fa1565b92915050565b600081519050610fda81610d5d565b92915050565b600060208284031215610ff657610ff5610b39565b5b600061100484828501610fcb565b91505092915050565b61101681610afb565b82525050565b6000819050919050565b600061104161103c6110378461101c565b610f75565b610afb565b9050919050565b61105181611026565b82525050565b600060408201905061106c600083018561100d565b6110796020830184611048565b9392505050565b7f4e487b7100000000000000000000000000000000000000000000000000000000600052601160045260246000fd5b60006110ba82610afb565b91506110c583610afb565b9250828210156110d8576110d7611080565b5b828203905092915050565b60006110ee82610afb565b91506110f983610afb565b9250827fffffffffffffffffffffffffffffffffffffffffffffffffffffffffffffffff0382111561112e5761112d611080565b5b828201905092915050565b600061114c61114784610c64565b610c49565b90508281526020810184848401111561116857611167610bd3565b5b611173848285610edd565b509392505050565b600082601f8301126111905761118f610bce565b5b81516111a0848260208601611139565b91505092915050565b6000602082840312156111bf576111be610b39565b5b600082015167ffffffffffffffff8111156111dd576111dc610b3e565b5b6111e98482850161117b565b9150509291505056fea26469706673582212201c564cccd66b27fa8e4cdfda46c1d32629e2479a62e52daf35bfe5d52fa560f064736f6c634300080d0033",
  "immutableReferences": {},
  "source": "// SPDX-License-Identifier: MIT\n// Tells the Solidity compiler to compile only from v0.8.13 to v0.9.0\npragma solidity ^0.8.13;\n\nimport \"./ConvertLib.sol\";\nimport \"./Inbox.sol\";\nimport \"./Calling.sol\";\n\n// This is just a simple example of a coin-like contract.\n// It is not ERC20 compatible and cannot be expected to talk to other\n// coin/token contracts.\n\ncontract MetaCoin {\n\t// The address that deployed this contract\n\taddress public contractOwner;\n\n\t// An instance of the inbox\n    Inbox anInbox;\n\n    CallMe dc;\n\n    // We pass the address of the contract in here.\n    function ExistingCall(address _t) public {\n        dc = CallMe(_t);\n    }\n \n    // We pass the address of the contract in here.\n    function Existing(address _t) public {\n        anInbox = Inbox(_t);\n    }\n \n\tmapping (address => uint) balances;\n\tmapping (uint => uint) mappings;\n\n\tevent Transfer(address indexed _from, address indexed _to, uint256 _value);\n\n\tconstructor() {\n\t\t// Log who deployed (owns) this contract\n\t\tcontractOwner = msg.sender;\n\n\t\tbalances[tx.origin] = 10000;\n\t\tmappings[23] = 6;\n\t\tmappings[26] = 3;\n\t}\n\n\tfunction sendCoin(address receiver, uint amount) public returns(bool sufficient) {\n\t\tif (balances[msg.sender] < amount) return false;\n\t\tbalances[msg.sender] -= amount;\n\t\tbalances[receiver] += amount;\n\t\temit Transfer(msg.sender, receiver, amount);\n\t\treturn true;\n\t}\n\n\tfunction getBalanceInEth(address addr) public view returns(uint){\n\t\treturn ConvertLib.convert(getBalance(addr),2);\n\t}\n\n\tfunction getBalance(address addr) public view returns(uint) {\n\t\treturn balances[addr];\n\t}\n\n\tfunction getArbMapping(uint key) public view returns(uint) {\n\t\t// If a key does not exist an empty element is returned.\n\t\t// No error is thrown.\n\t\treturn mappings[key];\n\t}\n\t\n\tfunction getMessage() public view returns (string memory){\n\t\treturn anInbox.getMessage();\n\t}\n\n\tfunction setMessage(string memory _message) public {\n\t\tanInbox.setMessage(_message);\n\t}\n\n\tfunction setPageSize() public returns(uint result) {\n\t\treturn anInbox.setPageSize(22);\n\t}\n\n    // Call a() on the dc contract.\n    function getA() public view returns (uint result) {\n        return dc.a();\n    }\n    \n    function setA(uint _val) public returns (uint result) {\n        dc.setA(_val);\n        return _val;\n    }\n\n\tfunction sendCashToThisContract() public payable {}\n\n\tfunction getThisContractBalance() public view returns (uint) {\n\t\treturn(address(this).balance);\n\t}\n\n\tfunction withdrawAllInsecure(address payable _to) public {\n\t\t_to.transfer(address(this).balance);\n\t}\n\tfunction withdrawAll(address payable _to) public {\n\t\trequire(contractOwner == _to);\n\t\t_to.transfer(address(this).balance);\n\t}\n\n\t// payable fallback to receive and store ETH\n\tfallback() external { }\n}\n",
  "sourcePath": "/home/robin/src/DumbContracts/metacoin/contracts/MetaCoin.sol",
  "compiler": {
    "name": "solc",
    "version": "0.8.13+commit.abaa5c0e.Emscripten.clang"
  },
  "schemaVersion": "3.4.11",
  "updatedAt": "2023-01-08T22:55:47.421Z",
  "networkType": "ethereum",
  "devdoc": {
    "kind": "dev",
    "methods": {},
    "version": 1
  },
  "userdoc": {
    "kind": "user",
    "methods": {},
    "version": 1
  }
}