{
  "contractName": "MetaCoin",
  "abi": [
    {
      "inputs": [],
      "stateMutability": "nonpayable",
      "type": "constructor"
    },
    {
      "anonymous": false,
      "inputs": [
        {
          "indexed": true,
          "internalType": "address",
          "name": "_from",
          "type": "address"
        },
        {
          "indexed": true,
          "internalType": "address",
          "name": "_to",
          "type": "address"
        },
        {
          "indexed": false,
          "internalType": "uint256",
          "name": "_value",
          "type": "uint256"
        }
      ],
      "name": "Transfer",
      "type": "event"
    },
    {
      "inputs": [
        {
          "internalType": "address",
          "name": "_t",
          "type": "address"
        }
      ],
      "name": "ExistingCall",
      "outputs": [],
      "stateMutability": "nonpayable",
      "type": "function"
    },
    {
      "inputs": [
        {
          "internalType": "address",
          "name": "_t",
          "type": "address"
        }
      ],
      "name": "Existing",
      "outputs": [],
      "stateMutability": "nonpayable",
      "type": "function"
    },
    {
      "inputs": [
        {
          "internalType": "address",
          "name": "receiver",
          "type": "address"
        },
        {
          "internalType": "uint256",
          "name": "amount",
          "type": "uint256"
        }
      ],
      "name": "sendCoin",
      "outputs": [
        {
          "internalType": "bool",
          "name": "sufficient",
          "type": "bool"
        }
      ],
      "stateMutability": "nonpayable",
      "type": "function"
    },
    {
      "inputs": [
        {
          "internalType": "address",
          "name": "addr",
          "type": "address"
        }
      ],
      "name": "getBalanceInEth",
      "outputs": [
        {
          "internalType": "uint256",
          "name": "",
          "type": "uint256"
        }
      ],
      "stateMutability": "view",
      "type": "function",
      "constant": true
    },
    {
      "inputs": [
        {
          "internalType": "address",
          "name": "addr",
          "type": "address"
        }
      ],
      "name": "getBalance",
      "outputs": [
        {
          "internalType": "uint256",
          "name": "",
          "type": "uint256"
        }
      ],
      "stateMutability": "view",
      "type": "function",
      "constant": true
    },
    {
      "inputs": [
        {
          "internalType": "uint256",
          "name": "key",
          "type": "uint256"
        }
      ],
      "name": "getArbMapping",
      "outputs": [
        {
          "internalType": "uint256",
          "name": "",
          "type": "uint256"
        }
      ],
      "stateMutability": "view",
      "type": "function",
      "constant": true
    },
    {
      "inputs": [],
      "name": "getMessage",
      "outputs": [
        {
          "internalType": "string",
          "name": "",
          "type": "string"
        }
      ],
      "stateMutability": "view",
      "type": "function",
      "constant": true
    },
    {
      "inputs": [
        {
          "internalType": "string",
          "name": "_message",
          "type": "string"
        }
      ],
      "name": "setMessage",
      "outputs": [],
      "stateMutability": "nonpayable",
      "type": "function"
    },
    {
      "inputs": [],
      "name": "setPageSize",
      "outputs": [
        {
          "internalType": "uint256",
          "name": "result",
          "type": "uint256"
        }
      ],
      "stateMutability": "nonpayable",
      "type": "function"
    },
    {
      "inputs": [],
      "name": "getA",
      "outputs": [
        {
          "internalType": "uint256",
          "name": "result",
          "type": "uint256"
        }
      ],
      "stateMutability": "view",
      "type": "function",
      "constant": true
    },
    {
      "inputs": [
        {
          "internalType": "uint256",
          "name": "_val",
          "type": "uint256"
        }
      ],
      "name": "setA",
      "outputs": [
        {
          "internalType": "uint256",
          "name": "result",
          "type": "uint256"
        }
      ],
      "stateMutability": "nonpayable",
      "type": "function"
    }
  ],
  "bytecode": "0x608060405234801561001057600080fd5b50612710600260003273ffffffffffffffffffffffffffffffffffffffff1673ffffffffffffffffffffffffffffffffffffffff1681526020019081526020016000208190555060066003600060178152602001908152602001600020819055506003806000601a815260200190815260200160002081905550610eda806100996000396000f3fe608060405234801561001057600080fd5b50600436106100a95760003560e01c80638e0273bb116100715780638e0273bb1461016457806390b98a1114610180578063ce6d41de146101b0578063d46300fd146101ce578063ee919d50146101ec578063f8b2cb4f1461021c576100a9565b80632376fcd2146100ae57806332938277146100cc578063368b8772146100e85780636b2d9c6d146101045780637bd703e814610134575b600080fd5b6100b661024c565b6040516100c3919061085b565b60405180910390f35b6100e660048036038101906100e191906108e8565b6102f1565b005b61010260048036038101906100fd9190610a5b565b610335565b005b61011e60048036038101906101199190610ad0565b6103c3565b60405161012b919061085b565b60405180910390f35b61014e600480360381019061014991906108e8565b6103e0565b60405161015b919061085b565b60405180910390f35b61017e600480360381019061017991906108e8565b61046c565b005b61019a60048036038101906101959190610afd565b6104af565b6040516101a79190610b58565b60405180910390f35b6101b861061d565b6040516101c59190610bfb565b60405180910390f35b6101d66106b8565b6040516101e3919061085b565b60405180910390f35b61020660048036038101906102019190610ad0565b610750565b604051610213919061085b565b60405180910390f35b610236600480360381019061023191906108e8565b6107f9565b604051610243919061085b565b60405180910390f35b60008060009054906101000a900473ffffffffffffffffffffffffffffffffffffffff1673ffffffffffffffffffffffffffffffffffffffff166327d00fd060166040518263ffffffff1660e01b81526004016102a99190610c62565b6020604051808303816000875af11580156102c8573d6000803e3d6000fd5b505050506040513d601f19601f820116820180604052508101906102ec9190610c92565b905090565b80600160006101000a81548173ffffffffffffffffffffffffffffffffffffffff021916908373ffffffffffffffffffffffffffffffffffffffff16021790555050565b60008054906101000a900473ffffffffffffffffffffffffffffffffffffffff1673ffffffffffffffffffffffffffffffffffffffff1663368b8772826040518263ffffffff1660e01b815260040161038e9190610bfb565b600060405180830381600087803b1580156103a857600080fd5b505af11580156103bc573d6000803e3d6000fd5b5050505050565b600060036000838152602001908152602001600020549050919050565b600073__ConvertLib____________________________6396e4ee3d610405846107f9565b60026040518363ffffffff1660e01b8152600401610424929190610d09565b602060405180830381865af4158015610441573d6000803e3d6000fd5b505050506040513d601f19601f820116820180604052508101906104659190610c92565b9050919050565b806000806101000a81548173ffffffffffffffffffffffffffffffffffffffff021916908373ffffffffffffffffffffffffffffffffffffffff16021790555050565b600081600260003373ffffffffffffffffffffffffffffffffffffffff1673ffffffffffffffffffffffffffffffffffffffff1681526020019081526020016000205410156105015760009050610617565b81600260003373ffffffffffffffffffffffffffffffffffffffff1673ffffffffffffffffffffffffffffffffffffffff16815260200190815260200160002060008282546105509190610d61565b9250508190555081600260008573ffffffffffffffffffffffffffffffffffffffff1673ffffffffffffffffffffffffffffffffffffffff16815260200190815260200160002060008282546105a69190610d95565b925050819055508273ffffffffffffffffffffffffffffffffffffffff163373ffffffffffffffffffffffffffffffffffffffff167fddf252ad1be2c89b69c2b068fc378daa952ba7f163c4a11628f55a4df523b3ef8460405161060a919061085b565b60405180910390a3600190505b92915050565b606060008054906101000a900473ffffffffffffffffffffffffffffffffffffffff1673ffffffffffffffffffffffffffffffffffffffff1663ce6d41de6040518163ffffffff1660e01b8152600401600060405180830381865afa15801561068a573d6000803e3d6000fd5b505050506040513d6000823e3d601f19601f820116820180604052508101906106b39190610e5b565b905090565b6000600160009054906101000a900473ffffffffffffffffffffffffffffffffffffffff1673ffffffffffffffffffffffffffffffffffffffff16630dbe671f6040518163ffffffff1660e01b8152600401602060405180830381865afa158015610727573d6000803e3d6000fd5b505050506040513d601f19601f8201168201806040525081019061074b9190610c92565b905090565b6000600160009054906101000a900473ffffffffffffffffffffffffffffffffffffffff1673ffffffffffffffffffffffffffffffffffffffff1663ee919d50836040518263ffffffff1660e01b81526004016107ad919061085b565b6020604051808303816000875af11580156107cc573d6000803e3d6000fd5b505050506040513d601f19601f820116820180604052508101906107f09190610c92565b50819050919050565b6000600260008373ffffffffffffffffffffffffffffffffffffffff1673ffffffffffffffffffffffffffffffffffffffff168152602001908152602001600020549050919050565b6000819050919050565b61085581610842565b82525050565b6000602082019050610870600083018461084c565b92915050565b6000604051905090565b600080fd5b600080fd5b600073ffffffffffffffffffffffffffffffffffffffff82169050919050565b60006108b58261088a565b9050919050565b6108c5816108aa565b81146108d057600080fd5b50565b6000813590506108e2816108bc565b92915050565b6000602082840312156108fe576108fd610880565b5b600061090c848285016108d3565b91505092915050565b600080fd5b600080fd5b6000601f19601f8301169050919050565b7f4e487b7100000000000000000000000000000000000000000000000000000000600052604160045260246000fd5b6109688261091f565b810181811067ffffffffffffffff8211171561098757610986610930565b5b80604052505050565b600061099a610876565b90506109a6828261095f565b919050565b600067ffffffffffffffff8211156109c6576109c5610930565b5b6109cf8261091f565b9050602081019050919050565b82818337600083830152505050565b60006109fe6109f9846109ab565b610990565b905082815260208101848484011115610a1a57610a1961091a565b5b610a258482856109dc565b509392505050565b600082601f830112610a4257610a41610915565b5b8135610a528482602086016109eb565b91505092915050565b600060208284031215610a7157610a70610880565b5b600082013567ffffffffffffffff811115610a8f57610a8e610885565b5b610a9b84828501610a2d565b91505092915050565b610aad81610842565b8114610ab857600080fd5b50565b600081359050610aca81610aa4565b92915050565b600060208284031215610ae657610ae5610880565b5b6000610af484828501610abb565b91505092915050565b60008060408385031215610b1457610b13610880565b5b6000610b22858286016108d3565b9250506020610b3385828601610abb565b9150509250929050565b60008115159050919050565b610b5281610b3d565b82525050565b6000602082019050610b6d6000830184610b49565b92915050565b600081519050919050565b600082825260208201905092915050565b60005b83811015610bad578082015181840152602081019050610b92565b83811115610bbc576000848401525b50505050565b6000610bcd82610b73565b610bd78185610b7e565b9350610be7818560208601610b8f565b610bf08161091f565b840191505092915050565b60006020820190508181036000830152610c158184610bc2565b905092915050565b6000819050919050565b6000819050919050565b6000610c4c610c47610c4284610c1d565b610c27565b610842565b9050919050565b610c5c81610c31565b82525050565b6000602082019050610c776000830184610c53565b92915050565b600081519050610c8c81610aa4565b92915050565b600060208284031215610ca857610ca7610880565b5b6000610cb684828501610c7d565b91505092915050565b610cc881610842565b82525050565b6000819050919050565b6000610cf3610cee610ce984610cce565b610c27565b610842565b9050919050565b610d0381610cd8565b82525050565b6000604082019050610d1e6000830185610cbf565b610d2b6020830184610cfa565b9392505050565b7f4e487b7100000000000000000000000000000000000000000000000000000000600052601160045260246000fd5b6000610d6c82610842565b9150610d7783610842565b925082821015610d8a57610d89610d32565b5b828203905092915050565b6000610da082610842565b9150610dab83610842565b9250827fffffffffffffffffffffffffffffffffffffffffffffffffffffffffffffffff03821115610de057610ddf610d32565b5b828201905092915050565b6000610dfe610df9846109ab565b610990565b905082815260208101848484011115610e1a57610e1961091a565b5b610e25848285610b8f565b509392505050565b600082601f830112610e4257610e41610915565b5b8151610e52848260208601610deb565b91505092915050565b600060208284031215610e7157610e70610880565b5b600082015167ffffffffffffffff811115610e8f57610e8e610885565b5b610e9b84828501610e2d565b9150509291505056fea26469706673582212208a2647011df53bab6ec35e1fcf79424bc3db3f7c80f5b62f3b440bd29207f5cc64736f6c634300080d0033",
  "immutableReferences": {},
  "source": "// SPDX-License-Identifier: MIT\n// Tells the Solidity compiler to compile only from v0.8.13 to v0.9.0\npragma solidity ^0.8.13;\n\nimport \"./ConvertLib.sol\";\nimport \"./Inbox.sol\";\nimport \"./Calling.sol\";\n\n// This is just a simple example of a coin-like contract.\n// It is not ERC20 compatible and cannot be expected to talk to other\n// coin/token contracts.\n\ncontract MetaCoin {\n\t// An instance of the inbox\n    Inbox anInbox;\n\n    CallMe dc;\n\n    // We pass the address of the contract in here.\n    function ExistingCall(address _t) public {\n        dc = CallMe(_t);\n    }\n \n    // We pass the address of the contract in here.\n    function Existing(address _t) public {\n        anInbox = Inbox(_t);\n    }\n \n\tmapping (address => uint) balances;\n\tmapping (uint => uint) mappings;\n\n\tevent Transfer(address indexed _from, address indexed _to, uint256 _value);\n\n\tconstructor() {\n\t\tbalances[tx.origin] = 10000;\n\t\tmappings[23] = 6;\n\t\tmappings[26] = 3;\n\t}\n\n\tfunction sendCoin(address receiver, uint amount) public returns(bool sufficient) {\n\t\tif (balances[msg.sender] < amount) return false;\n\t\tbalances[msg.sender] -= amount;\n\t\tbalances[receiver] += amount;\n\t\temit Transfer(msg.sender, receiver, amount);\n\t\treturn true;\n\t}\n\n\tfunction getBalanceInEth(address addr) public view returns(uint){\n\t\treturn ConvertLib.convert(getBalance(addr),2);\n\t}\n\n\tfunction getBalance(address addr) public view returns(uint) {\n\t\treturn balances[addr];\n\t}\n\n\tfunction getArbMapping(uint key) public view returns(uint) {\n\t\t// If a key does not exist an empty element is returned.\n\t\t// No error is thrown.\n\t\treturn mappings[key];\n\t}\n\t\n\tfunction getMessage() public view returns (string memory){\n\t\treturn anInbox.getMessage();\n\t}\n\n\tfunction setMessage(string memory _message) public {\n\t\tanInbox.setMessage(_message);\n\t}\n\n\tfunction setPageSize() public returns(uint result) {\n\t\treturn anInbox.setPageSize(22);\n\t}\n\n    // Call a() on the dc contract.\n    function getA() public view returns (uint result) {\n        return dc.a();\n    }\n    \n    function setA(uint _val) public returns (uint result) {\n        dc.setA(_val);\n        return _val;\n    }\n}\n",
  "sourcePath": "/home/robin/src/DumbContracts/metacoin/contracts/MetaCoin.sol",
  "compiler": {
    "name": "solc",
    "version": "0.8.13+commit.abaa5c0e.Emscripten.clang"
  },
  "schemaVersion": "3.4.11",
  "updatedAt": "2023-01-07T18:16:20.953Z",
  "networkType": "ethereum",
  "devdoc": {
    "kind": "dev",
    "methods": {},
    "version": 1
  },
  "userdoc": {
    "kind": "user",
    "methods": {},
    "version": 1
  }
}