{
  "contractName": "MetaCoin",
  "abi": [
    {
      "inputs": [],
      "stateMutability": "nonpayable",
      "type": "constructor"
    },
    {
      "anonymous": false,
      "inputs": [
        {
          "indexed": true,
          "internalType": "address",
          "name": "_from",
          "type": "address"
        },
        {
          "indexed": true,
          "internalType": "address",
          "name": "_to",
          "type": "address"
        },
        {
          "indexed": false,
          "internalType": "uint256",
          "name": "_value",
          "type": "uint256"
        }
      ],
      "name": "Transfer",
      "type": "event"
    },
    {
      "inputs": [
        {
          "internalType": "address",
          "name": "receiver",
          "type": "address"
        },
        {
          "internalType": "uint256",
          "name": "amount",
          "type": "uint256"
        }
      ],
      "name": "sendCoin",
      "outputs": [
        {
          "internalType": "bool",
          "name": "sufficient",
          "type": "bool"
        }
      ],
      "stateMutability": "nonpayable",
      "type": "function"
    },
    {
      "inputs": [
        {
          "internalType": "address",
          "name": "addr",
          "type": "address"
        }
      ],
      "name": "getBalanceInEth",
      "outputs": [
        {
          "internalType": "uint256",
          "name": "",
          "type": "uint256"
        }
      ],
      "stateMutability": "view",
      "type": "function",
      "constant": true
    },
    {
      "inputs": [
        {
          "internalType": "address",
          "name": "addr",
          "type": "address"
        }
      ],
      "name": "getBalance",
      "outputs": [
        {
          "internalType": "uint256",
          "name": "",
          "type": "uint256"
        }
      ],
      "stateMutability": "view",
      "type": "function",
      "constant": true
    },
    {
      "inputs": [
        {
          "internalType": "uint256",
          "name": "key",
          "type": "uint256"
        }
      ],
      "name": "getArbMapping",
      "outputs": [
        {
          "internalType": "uint256",
          "name": "",
          "type": "uint256"
        }
      ],
      "stateMutability": "view",
      "type": "function",
      "constant": true
    }
  ],
  "bytecode": "0x608060405234801561001057600080fd5b506127106000803273ffffffffffffffffffffffffffffffffffffffff1673ffffffffffffffffffffffffffffffffffffffff168152602001908152602001600020819055506006600160006017815260200190815260200160002081905550600360016000601a8152602001908152602001600020819055506106ae806100996000396000f3fe608060405234801561001057600080fd5b506004361061004c5760003560e01c80636b2d9c6d146100515780637bd703e81461008157806390b98a11146100b1578063f8b2cb4f146100e1575b600080fd5b61006b600480360381019061006691906103a8565b610111565b60405161007891906103e4565b60405180910390f35b61009b6004803603810190610096919061045d565b61012e565b6040516100a891906103e4565b60405180910390f35b6100cb60048036038101906100c6919061048a565b6101ba565b6040516100d891906104e5565b60405180910390f35b6100fb60048036038101906100f6919061045d565b610325565b60405161010891906103e4565b60405180910390f35b600060016000838152602001908152602001600020549050919050565b600073__ConvertLib____________________________6396e4ee3d61015384610325565b60026040518363ffffffff1660e01b8152600401610172929190610554565b602060405180830381865af415801561018f573d6000803e3d6000fd5b505050506040513d601f19601f820116820180604052508101906101b39190610592565b9050919050565b6000816000803373ffffffffffffffffffffffffffffffffffffffff1673ffffffffffffffffffffffffffffffffffffffff16815260200190815260200160002054101561020b576000905061031f565b816000803373ffffffffffffffffffffffffffffffffffffffff1673ffffffffffffffffffffffffffffffffffffffff168152602001908152602001600020600082825461025991906105ee565b92505081905550816000808573ffffffffffffffffffffffffffffffffffffffff1673ffffffffffffffffffffffffffffffffffffffff16815260200190815260200160002060008282546102ae9190610622565b925050819055508273ffffffffffffffffffffffffffffffffffffffff163373ffffffffffffffffffffffffffffffffffffffff167fddf252ad1be2c89b69c2b068fc378daa952ba7f163c4a11628f55a4df523b3ef8460405161031291906103e4565b60405180910390a3600190505b92915050565b60008060008373ffffffffffffffffffffffffffffffffffffffff1673ffffffffffffffffffffffffffffffffffffffff168152602001908152602001600020549050919050565b600080fd5b6000819050919050565b61038581610372565b811461039057600080fd5b50565b6000813590506103a28161037c565b92915050565b6000602082840312156103be576103bd61036d565b5b60006103cc84828501610393565b91505092915050565b6103de81610372565b82525050565b60006020820190506103f960008301846103d5565b92915050565b600073ffffffffffffffffffffffffffffffffffffffff82169050919050565b600061042a826103ff565b9050919050565b61043a8161041f565b811461044557600080fd5b50565b60008135905061045781610431565b92915050565b6000602082840312156104735761047261036d565b5b600061048184828501610448565b91505092915050565b600080604083850312156104a1576104a061036d565b5b60006104af85828601610448565b92505060206104c085828601610393565b9150509250929050565b60008115159050919050565b6104df816104ca565b82525050565b60006020820190506104fa60008301846104d6565b92915050565b61050981610372565b82525050565b6000819050919050565b6000819050919050565b600061053e6105396105348461050f565b610519565b610372565b9050919050565b61054e81610523565b82525050565b60006040820190506105696000830185610500565b6105766020830184610545565b9392505050565b60008151905061058c8161037c565b92915050565b6000602082840312156105a8576105a761036d565b5b60006105b68482850161057d565b91505092915050565b7f4e487b7100000000000000000000000000000000000000000000000000000000600052601160045260246000fd5b60006105f982610372565b915061060483610372565b925082821015610617576106166105bf565b5b828203905092915050565b600061062d82610372565b915061063883610372565b9250827fffffffffffffffffffffffffffffffffffffffffffffffffffffffffffffffff0382111561066d5761066c6105bf565b5b82820190509291505056fea26469706673582212204c53e5fd48f5bd741c5422cf1e548ce120ec7a4d92c5cb4d645d15e13b8a3c6464736f6c634300080d0033",
  "immutableReferences": {},
  "source": "// SPDX-License-Identifier: MIT\n// Tells the Solidity compiler to compile only from v0.8.13 to v0.9.0\npragma solidity ^0.8.13;\n\nimport \"./ConvertLib.sol\";\n\n// This is just a simple example of a coin-like contract.\n// It is not ERC20 compatible and cannot be expected to talk to other\n// coin/token contracts.\n\ncontract MetaCoin {\n\tmapping (address => uint) balances;\n\tmapping (uint => uint) mappings;\n\n\tevent Transfer(address indexed _from, address indexed _to, uint256 _value);\n\n\tconstructor() {\n\t\tbalances[tx.origin] = 10000;\n\t\tmappings[23] = 6;\n\t\tmappings[26] = 3;\n\t}\n\n\tfunction sendCoin(address receiver, uint amount) public returns(bool sufficient) {\n\t\tif (balances[msg.sender] < amount) return false;\n\t\tbalances[msg.sender] -= amount;\n\t\tbalances[receiver] += amount;\n\t\temit Transfer(msg.sender, receiver, amount);\n\t\treturn true;\n\t}\n\n\tfunction getBalanceInEth(address addr) public view returns(uint){\n\t\treturn ConvertLib.convert(getBalance(addr),2);\n\t}\n\n\tfunction getBalance(address addr) public view returns(uint) {\n\t\treturn balances[addr];\n\t}\n\n\tfunction getArbMapping(uint key) public view returns(uint) {\n\t\t// If a key does not exist an empty element is returned.\n\t\t// No error is thrown.\n\t\treturn mappings[key];\n\t}\n}\n",
  "sourcePath": "/home/robin/src/DumbContracts/metacoin/contracts/MetaCoin.sol",
  "compiler": {
    "name": "solc",
    "version": "0.8.13+commit.abaa5c0e.Emscripten.clang"
  },
  "schemaVersion": "3.4.11",
  "updatedAt": "2023-01-06T21:00:21.898Z",
  "networkType": "ethereum",
  "devdoc": {
    "kind": "dev",
    "methods": {},
    "version": 1
  },
  "userdoc": {
    "kind": "user",
    "methods": {},
    "version": 1
  }
}